{
  "_format": "hh-sol-artifact-1",
  "contractName": "nUSD",
  "sourceName": "contracts/uUSD.sol",
  "abi": [
    {
      "inputs": [
        {
          "internalType": "address",
          "name": "_oracle",
          "type": "address"
        }
      ],
      "stateMutability": "nonpayable",
      "type": "constructor"
    },
    {
      "anonymous": false,
      "inputs": [
        {
          "indexed": true,
          "internalType": "address",
          "name": "account",
          "type": "address"
        },
        {
          "indexed": false,
          "internalType": "uint256",
          "name": "ethAmount",
          "type": "uint256"
        },
        {
          "indexed": false,
          "internalType": "uint256",
          "name": "nUSDAmount",
          "type": "uint256"
        }
      ],
      "name": "Deposit",
      "type": "event"
    },
    {
      "anonymous": false,
      "inputs": [
        {
          "indexed": true,
          "internalType": "address",
          "name": "account",
          "type": "address"
        },
        {
          "indexed": false,
          "internalType": "uint256",
          "name": "nUSDAmount",
          "type": "uint256"
        },
        {
          "indexed": false,
          "internalType": "uint256",
          "name": "ethAmount",
          "type": "uint256"
        }
      ],
      "name": "Redeem",
      "type": "event"
    },
    {
      "inputs": [],
      "name": "decimals",
      "outputs": [
        {
          "internalType": "uint8",
          "name": "",
          "type": "uint8"
        }
      ],
      "stateMutability": "view",
      "type": "function"
    },
    {
      "inputs": [],
      "name": "deposit",
      "outputs": [],
      "stateMutability": "payable",
      "type": "function"
    },
    {
      "inputs": [],
      "name": "getETHPrice",
      "outputs": [
        {
          "internalType": "uint256",
          "name": "",
          "type": "uint256"
        }
      ],
      "stateMutability": "view",
      "type": "function"
    },
    {
      "inputs": [],
      "name": "name",
      "outputs": [
        {
          "internalType": "string",
          "name": "",
          "type": "string"
        }
      ],
      "stateMutability": "view",
      "type": "function"
    },
    {
      "inputs": [
        {
          "internalType": "uint256",
          "name": "nUSDAmount",
          "type": "uint256"
        }
      ],
      "name": "redeem",
      "outputs": [],
      "stateMutability": "nonpayable",
      "type": "function"
    },
    {
      "inputs": [],
      "name": "symbol",
      "outputs": [
        {
          "internalType": "string",
          "name": "",
          "type": "string"
        }
      ],
      "stateMutability": "view",
      "type": "function"
    },
    {
      "inputs": [],
      "name": "totalSupply",
      "outputs": [
        {
          "internalType": "uint256",
          "name": "",
          "type": "uint256"
        }
      ],
      "stateMutability": "view",
      "type": "function"
    }
  ],
  "bytecode": "0x60806040523480156200001157600080fd5b50604051620014e9380380620014e98339818101604052810190620000379190620001f6565b6040518060400160405280600481526020017f6e55534400000000000000000000000000000000000000000000000000000000815250600090816200007d9190620004a2565b506040518060400160405280600481526020017f6e5553440000000000000000000000000000000000000000000000000000000081525060019081620000c49190620004a2565b506012600260006101000a81548160ff021916908360ff16021790555080600260016101000a81548173ffffffffffffffffffffffffffffffffffffffff021916908373ffffffffffffffffffffffffffffffffffffffff160217905550600260019054906101000a900473ffffffffffffffffffffffffffffffffffffffff16600360006101000a81548173ffffffffffffffffffffffffffffffffffffffff021916908373ffffffffffffffffffffffffffffffffffffffff1602179055505062000589565b600080fd5b600073ffffffffffffffffffffffffffffffffffffffff82169050919050565b6000620001be8262000191565b9050919050565b620001d081620001b1565b8114620001dc57600080fd5b50565b600081519050620001f081620001c5565b92915050565b6000602082840312156200020f576200020e6200018c565b5b60006200021f84828501620001df565b91505092915050565b600081519050919050565b7f4e487b7100000000000000000000000000000000000000000000000000000000600052604160045260246000fd5b7f4e487b7100000000000000000000000000000000000000000000000000000000600052602260045260246000fd5b60006002820490506001821680620002aa57607f821691505b602082108103620002c057620002bf62000262565b5b50919050565b60008190508160005260206000209050919050565b60006020601f8301049050919050565b600082821b905092915050565b6000600883026200032a7fffffffffffffffffffffffffffffffffffffffffffffffffffffffffffffffff82620002eb565b620003368683620002eb565b95508019841693508086168417925050509392505050565b6000819050919050565b6000819050919050565b6000620003836200037d62000377846200034e565b62000358565b6200034e565b9050919050565b6000819050919050565b6200039f8362000362565b620003b7620003ae826200038a565b848454620002f8565b825550505050565b600090565b620003ce620003bf565b620003db81848462000394565b505050565b5b818110156200040357620003f7600082620003c4565b600181019050620003e1565b5050565b601f82111562000452576200041c81620002c6565b6200042784620002db565b8101602085101562000437578190505b6200044f6200044685620002db565b830182620003e0565b50505b505050565b600082821c905092915050565b6000620004776000198460080262000457565b1980831691505092915050565b600062000492838362000464565b9150826002028217905092915050565b620004ad8262000228565b67ffffffffffffffff811115620004c957620004c862000233565b5b620004d5825462000291565b620004e282828562000407565b600060209050601f8311600181146200051a576000841562000505578287015190505b62000511858262000484565b86555062000581565b601f1984166200052a86620002c6565b60005b8281101562000554578489015182556001820191506020850194506020810190506200052d565b8683101562000574578489015162000570601f89168262000464565b8355505b6001600288020188555050505b505050505050565b610f5080620005996000396000f3fe6080604052600436106100705760003560e01c806395d89b411161004e57806395d89b41146100f6578063a607a8d914610121578063d0e30db01461014c578063db006a751461015657610070565b806306fdde031461007557806318160ddd146100a0578063313ce567146100cb575b600080fd5b34801561008157600080fd5b5061008a61017f565b60405161009791906107f1565b60405180910390f35b3480156100ac57600080fd5b506100b561020d565b6040516100c2919061082c565b60405180910390f35b3480156100d757600080fd5b506100e0610213565b6040516100ed9190610863565b60405180910390f35b34801561010257600080fd5b5061010b610226565b60405161011891906107f1565b60405180910390f35b34801561012d57600080fd5b506101366102b4565b604051610143919061082c565b60405180910390f35b610154610398565b005b34801561016257600080fd5b5061017d600480360381019061017891906108af565b61046d565b005b6000805461018c9061090b565b80601f01602080910402602001604051908101604052809291908181526020018280546101b89061090b565b80156102055780601f106101da57610100808354040283529160200191610205565b820191906000526020600020905b8154815290600101906020018083116101e857829003601f168201915b505050505081565b60055481565b600260009054906101000a900460ff1681565b600180546102339061090b565b80601f016020809104026020016040519081016040528092919081815260200182805461025f9061090b565b80156102ac5780601f10610281576101008083540402835291602001916102ac565b820191906000526020600020905b81548152906001019060200180831161028f57829003601f168201915b505050505081565b600080600360009054906101000a900473ffffffffffffffffffffffffffffffffffffffff1673ffffffffffffffffffffffffffffffffffffffff1663feaf968c6040518163ffffffff1660e01b815260040160a060405180830381865afa158015610324573d6000803e3d6000fd5b505050506040513d601f19601f8201168201806040525081019061034891906109c9565b50505091505060008113610391576040517f08c379a000000000000000000000000000000000000000000000000000000000815260040161038890610a90565b60405180910390fd5b8091505090565b600034905060006103a8826106af565b905080600460003373ffffffffffffffffffffffffffffffffffffffff1673ffffffffffffffffffffffffffffffffffffffff16815260200190815260200160002060008282546103f99190610adf565b9250508190555080600560008282546104129190610adf565b925050819055503373ffffffffffffffffffffffffffffffffffffffff167f90890809c654f11d6e72a28fa60149770a0d11ec6c92319d6ceb2bb0a4ea1a158383604051610461929190610b13565b60405180910390a25050565b80600460003373ffffffffffffffffffffffffffffffffffffffff1673ffffffffffffffffffffffffffffffffffffffff1681526020019081526020016000205410156104ef576040517f08c379a00000000000000000000000000000000000000000000000000000000081526004016104e690610b88565b60405180910390fd5b60006104fa82610708565b90508047101561053f576040517f08c379a000000000000000000000000000000000000000000000000000000000815260040161053690610bf4565b60405180910390fd5b81600460003373ffffffffffffffffffffffffffffffffffffffff1673ffffffffffffffffffffffffffffffffffffffff168152602001908152602001600020600082825461058e9190610c14565b9250508190555081600560008282546105a79190610c14565b9250508190555060003373ffffffffffffffffffffffffffffffffffffffff16826040516105d490610c79565b60006040518083038185875af1925050503d8060008114610611576040519150601f19603f3d011682016040523d82523d6000602084013e610616565b606091505b505090508061065a576040517f08c379a000000000000000000000000000000000000000000000000000000000815260040161065190610cda565b60405180910390fd5b3373ffffffffffffffffffffffffffffffffffffffff167fe5b754fb1abb7f01b499791d0b820ae3b6af3424ac1c59768edb53f4ec31a92984846040516106a2929190610b13565b60405180910390a2505050565b6000806106ba6102b4565b905060006002826106cb9190610d29565b600260009054906101000a900460ff16600a6106e79190610e8d565b856106f29190610ed8565b6106fc9190610d29565b90508092505050919050565b6000806107136102b4565b90506000600260009054906101000a900460ff16600a6107339190610e8d565b6002836107409190610d29565b8561074b9190610ed8565b6107559190610d29565b90508092505050919050565b600081519050919050565b600082825260208201905092915050565b60005b8381101561079b578082015181840152602081019050610780565b60008484015250505050565b6000601f19601f8301169050919050565b60006107c382610761565b6107cd818561076c565b93506107dd81856020860161077d565b6107e6816107a7565b840191505092915050565b6000602082019050818103600083015261080b81846107b8565b905092915050565b6000819050919050565b61082681610813565b82525050565b6000602082019050610841600083018461081d565b92915050565b600060ff82169050919050565b61085d81610847565b82525050565b60006020820190506108786000830184610854565b92915050565b600080fd5b61088c81610813565b811461089757600080fd5b50565b6000813590506108a981610883565b92915050565b6000602082840312156108c5576108c461087e565b5b60006108d38482850161089a565b91505092915050565b7f4e487b7100000000000000000000000000000000000000000000000000000000600052602260045260246000fd5b6000600282049050600182168061092357607f821691505b602082108103610936576109356108dc565b5b50919050565b600069ffffffffffffffffffff82169050919050565b61095b8161093c565b811461096657600080fd5b50565b60008151905061097881610952565b92915050565b6000819050919050565b6109918161097e565b811461099c57600080fd5b50565b6000815190506109ae81610988565b92915050565b6000815190506109c381610883565b92915050565b600080600080600060a086880312156109e5576109e461087e565b5b60006109f388828901610969565b9550506020610a048882890161099f565b9450506040610a15888289016109b4565b9350506060610a26888289016109b4565b9250506080610a3788828901610969565b9150509295509295909350565b7f496e76616c696420707269636500000000000000000000000000000000000000600082015250565b6000610a7a600d8361076c565b9150610a8582610a44565b602082019050919050565b60006020820190508181036000830152610aa981610a6d565b9050919050565b7f4e487b7100000000000000000000000000000000000000000000000000000000600052601160045260246000fd5b6000610aea82610813565b9150610af583610813565b9250828201905080821115610b0d57610b0c610ab0565b5b92915050565b6000604082019050610b28600083018561081d565b610b35602083018461081d565b9392505050565b7f496e73756666696369656e742062616c616e6365000000000000000000000000600082015250565b6000610b7260148361076c565b9150610b7d82610b3c565b602082019050919050565b60006020820190508181036000830152610ba181610b65565b9050919050565b7f496e73756666696369656e742045544820696e2074686520636f6e7472616374600082015250565b6000610bde60208361076c565b9150610be982610ba8565b602082019050919050565b60006020820190508181036000830152610c0d81610bd1565b9050919050565b6000610c1f82610813565b9150610c2a83610813565b9250828203905081811115610c4257610c41610ab0565b5b92915050565b600081905092915050565b50565b6000610c63600083610c48565b9150610c6e82610c53565b600082019050919050565b6000610c8482610c56565b9150819050919050565b7f455448207472616e73666572206661696c656400000000000000000000000000600082015250565b6000610cc460138361076c565b9150610ccf82610c8e565b602082019050919050565b60006020820190508181036000830152610cf381610cb7565b9050919050565b7f4e487b7100000000000000000000000000000000000000000000000000000000600052601260045260246000fd5b6000610d3482610813565b9150610d3f83610813565b925082610d4f57610d4e610cfa565b5b828204905092915050565b60008160011c9050919050565b6000808291508390505b6001851115610db157808604811115610d8d57610d8c610ab0565b5b6001851615610d9c5780820291505b8081029050610daa85610d5a565b9450610d71565b94509492505050565b600082610dca5760019050610e86565b81610dd85760009050610e86565b8160018114610dee5760028114610df857610e27565b6001915050610e86565b60ff841115610e0a57610e09610ab0565b5b8360020a915084821115610e2157610e20610ab0565b5b50610e86565b5060208310610133831016604e8410600b8410161715610e5c5782820a905083811115610e5757610e56610ab0565b5b610e86565b610e698484846001610d67565b92509050818404811115610e8057610e7f610ab0565b5b81810290505b9392505050565b6000610e9882610813565b9150610ea383610847565b9250610ed07fffffffffffffffffffffffffffffffffffffffffffffffffffffffffffffffff8484610dba565b905092915050565b6000610ee382610813565b9150610eee83610813565b9250828202610efc81610813565b91508282048414831517610f1357610f12610ab0565b5b509291505056fea26469706673582212206d613ee13b58d054b4e6767d8d6ef97c0455ca3e753857bfb9dfb6a29cfb76f364736f6c63430008120033",
  "linkReferences": {},
  "deployedLinkReferences": {}
}