{"contracts/uUSD.sol":{"nUSD":{"abi":[{"inputs":[{"internalType":"address","name":"_oracle","type":"address"}],"stateMutability":"nonpayable","type":"constructor"},{"anonymous":false,"inputs":[{"indexed":true,"internalType":"address","name":"account","type":"address"},{"indexed":false,"internalType":"uint256","name":"ethAmount","type":"uint256"},{"indexed":false,"internalType":"uint256","name":"nUSDAmount","type":"uint256"}],"name":"Deposit","type":"event"},{"anonymous":false,"inputs":[{"indexed":true,"internalType":"address","name":"account","type":"address"},{"indexed":false,"internalType":"uint256","name":"nUSDAmount","type":"uint256"},{"indexed":false,"internalType":"uint256","name":"ethAmount","type":"uint256"}],"name":"Redeem","type":"event"},{"inputs":[],"name":"decimals","outputs":[{"internalType":"uint8","name":"","type":"uint8"}],"stateMutability":"view","type":"function"},{"inputs":[],"name":"deposit","outputs":[],"stateMutability":"payable","type":"function"},{"inputs":[],"name":"getETHPrice","outputs":[{"internalType":"uint256","name":"","type":"uint256"}],"stateMutability":"view","type":"function"},{"inputs":[],"name":"name","outputs":[{"internalType":"string","name":"","type":"string"}],"stateMutability":"view","type":"function"},{"inputs":[{"internalType":"uint256","name":"nUSDAmount","type":"uint256"}],"name":"redeem","outputs":[],"stateMutability":"nonpayable","type":"function"},{"inputs":[],"name":"symbol","outputs":[{"internalType":"string","name":"","type":"string"}],"stateMutability":"view","type":"function"},{"inputs":[],"name":"totalSupply","outputs":[{"internalType":"uint256","name":"","type":"uint256"}],"stateMutability":"view","type":"function"}],"evm":{"bytecode":{"linkReferences":{},"object":"60806040523480156200001157600080fd5b50604051620014e9380380620014e98339818101604052810190620000379190620001f6565b6040518060400160405280600481526020017f6e55534400000000000000000000000000000000000000000000000000000000815250600090816200007d9190620004a2565b506040518060400160405280600481526020017f6e5553440000000000000000000000000000000000000000000000000000000081525060019081620000c49190620004a2565b506012600260006101000a81548160ff021916908360ff16021790555080600260016101000a81548173ffffffffffffffffffffffffffffffffffffffff021916908373ffffffffffffffffffffffffffffffffffffffff160217905550600260019054906101000a900473ffffffffffffffffffffffffffffffffffffffff16600360006101000a81548173ffffffffffffffffffffffffffffffffffffffff021916908373ffffffffffffffffffffffffffffffffffffffff1602179055505062000589565b600080fd5b600073ffffffffffffffffffffffffffffffffffffffff82169050919050565b6000620001be8262000191565b9050919050565b620001d081620001b1565b8114620001dc57600080fd5b50565b600081519050620001f081620001c5565b92915050565b6000602082840312156200020f576200020e6200018c565b5b60006200021f84828501620001df565b91505092915050565b600081519050919050565b7f4e487b7100000000000000000000000000000000000000000000000000000000600052604160045260246000fd5b7f4e487b7100000000000000000000000000000000000000000000000000000000600052602260045260246000fd5b60006002820490506001821680620002aa57607f821691505b602082108103620002c057620002bf62000262565b5b50919050565b60008190508160005260206000209050919050565b60006020601f8301049050919050565b600082821b905092915050565b6000600883026200032a7fffffffffffffffffffffffffffffffffffffffffffffffffffffffffffffffff82620002eb565b620003368683620002eb565b95508019841693508086168417925050509392505050565b6000819050919050565b6000819050919050565b6000620003836200037d62000377846200034e565b62000358565b6200034e565b9050919050565b6000819050919050565b6200039f8362000362565b620003b7620003ae826200038a565b848454620002f8565b825550505050565b600090565b620003ce620003bf565b620003db81848462000394565b505050565b5b818110156200040357620003f7600082620003c4565b600181019050620003e1565b5050565b601f82111562000452576200041c81620002c6565b6200042784620002db565b8101602085101562000437578190505b6200044f6200044685620002db565b830182620003e0565b50505b505050565b600082821c905092915050565b6000620004776000198460080262000457565b1980831691505092915050565b600062000492838362000464565b9150826002028217905092915050565b620004ad8262000228565b67ffffffffffffffff811115620004c957620004c862000233565b5b620004d5825462000291565b620004e282828562000407565b600060209050601f8311600181146200051a576000841562000505578287015190505b62000511858262000484565b86555062000581565b601f1984166200052a86620002c6565b60005b8281101562000554578489015182556001820191506020850194506020810190506200052d565b8683101562000574578489015162000570601f89168262000464565b8355505b6001600288020188555050505b505050505050565b610f5080620005996000396000f3fe6080604052600436106100705760003560e01c806395d89b411161004e57806395d89b41146100f6578063a607a8d914610121578063d0e30db01461014c578063db006a751461015657610070565b806306fdde031461007557806318160ddd146100a0578063313ce567146100cb575b600080fd5b34801561008157600080fd5b5061008a61017f565b60405161009791906107f1565b60405180910390f35b3480156100ac57600080fd5b506100b561020d565b6040516100c2919061082c565b60405180910390f35b3480156100d757600080fd5b506100e0610213565b6040516100ed9190610863565b60405180910390f35b34801561010257600080fd5b5061010b610226565b60405161011891906107f1565b60405180910390f35b34801561012d57600080fd5b506101366102b4565b604051610143919061082c565b60405180910390f35b610154610398565b005b34801561016257600080fd5b5061017d600480360381019061017891906108af565b61046d565b005b6000805461018c9061090b565b80601f01602080910402602001604051908101604052809291908181526020018280546101b89061090b565b80156102055780601f106101da57610100808354040283529160200191610205565b820191906000526020600020905b8154815290600101906020018083116101e857829003601f168201915b505050505081565b60055481565b600260009054906101000a900460ff1681565b600180546102339061090b565b80601f016020809104026020016040519081016040528092919081815260200182805461025f9061090b565b80156102ac5780601f10610281576101008083540402835291602001916102ac565b820191906000526020600020905b81548152906001019060200180831161028f57829003601f168201915b505050505081565b600080600360009054906101000a900473ffffffffffffffffffffffffffffffffffffffff1673ffffffffffffffffffffffffffffffffffffffff1663feaf968c6040518163ffffffff1660e01b815260040160a060405180830381865afa158015610324573d6000803e3d6000fd5b505050506040513d601f19601f8201168201806040525081019061034891906109c9565b50505091505060008113610391576040517f08c379a000000000000000000000000000000000000000000000000000000000815260040161038890610a90565b60405180910390fd5b8091505090565b600034905060006103a8826106af565b905080600460003373ffffffffffffffffffffffffffffffffffffffff1673ffffffffffffffffffffffffffffffffffffffff16815260200190815260200160002060008282546103f99190610adf565b9250508190555080600560008282546104129190610adf565b925050819055503373ffffffffffffffffffffffffffffffffffffffff167f90890809c654f11d6e72a28fa60149770a0d11ec6c92319d6ceb2bb0a4ea1a158383604051610461929190610b13565b60405180910390a25050565b80600460003373ffffffffffffffffffffffffffffffffffffffff1673ffffffffffffffffffffffffffffffffffffffff1681526020019081526020016000205410156104ef576040517f08c379a00000000000000000000000000000000000000000000000000000000081526004016104e690610b88565b60405180910390fd5b60006104fa82610708565b90508047101561053f576040517f08c379a000000000000000000000000000000000000000000000000000000000815260040161053690610bf4565b60405180910390fd5b81600460003373ffffffffffffffffffffffffffffffffffffffff1673ffffffffffffffffffffffffffffffffffffffff168152602001908152602001600020600082825461058e9190610c14565b9250508190555081600560008282546105a79190610c14565b9250508190555060003373ffffffffffffffffffffffffffffffffffffffff16826040516105d490610c79565b60006040518083038185875af1925050503d8060008114610611576040519150601f19603f3d011682016040523d82523d6000602084013e610616565b606091505b505090508061065a576040517f08c379a000000000000000000000000000000000000000000000000000000000815260040161065190610cda565b60405180910390fd5b3373ffffffffffffffffffffffffffffffffffffffff167fe5b754fb1abb7f01b499791d0b820ae3b6af3424ac1c59768edb53f4ec31a92984846040516106a2929190610b13565b60405180910390a2505050565b6000806106ba6102b4565b905060006002826106cb9190610d29565b600260009054906101000a900460ff16600a6106e79190610e8d565b856106f29190610ed8565b6106fc9190610d29565b90508092505050919050565b6000806107136102b4565b90506000600260009054906101000a900460ff16600a6107339190610e8d565b6002836107409190610d29565b8561074b9190610ed8565b6107559190610d29565b90508092505050919050565b600081519050919050565b600082825260208201905092915050565b60005b8381101561079b578082015181840152602081019050610780565b60008484015250505050565b6000601f19601f8301169050919050565b60006107c382610761565b6107cd818561076c565b93506107dd81856020860161077d565b6107e6816107a7565b840191505092915050565b6000602082019050818103600083015261080b81846107b8565b905092915050565b6000819050919050565b61082681610813565b82525050565b6000602082019050610841600083018461081d565b92915050565b600060ff82169050919050565b61085d81610847565b82525050565b60006020820190506108786000830184610854565b92915050565b600080fd5b61088c81610813565b811461089757600080fd5b50565b6000813590506108a981610883565b92915050565b6000602082840312156108c5576108c461087e565b5b60006108d38482850161089a565b91505092915050565b7f4e487b7100000000000000000000000000000000000000000000000000000000600052602260045260246000fd5b6000600282049050600182168061092357607f821691505b602082108103610936576109356108dc565b5b50919050565b600069ffffffffffffffffffff82169050919050565b61095b8161093c565b811461096657600080fd5b50565b60008151905061097881610952565b92915050565b6000819050919050565b6109918161097e565b811461099c57600080fd5b50565b6000815190506109ae81610988565b92915050565b6000815190506109c381610883565b92915050565b600080600080600060a086880312156109e5576109e461087e565b5b60006109f388828901610969565b9550506020610a048882890161099f565b9450506040610a15888289016109b4565b9350506060610a26888289016109b4565b9250506080610a3788828901610969565b9150509295509295909350565b7f496e76616c696420707269636500000000000000000000000000000000000000600082015250565b6000610a7a600d8361076c565b9150610a8582610a44565b602082019050919050565b60006020820190508181036000830152610aa981610a6d565b9050919050565b7f4e487b7100000000000000000000000000000000000000000000000000000000600052601160045260246000fd5b6000610aea82610813565b9150610af583610813565b9250828201905080821115610b0d57610b0c610ab0565b5b92915050565b6000604082019050610b28600083018561081d565b610b35602083018461081d565b9392505050565b7f496e73756666696369656e742062616c616e6365000000000000000000000000600082015250565b6000610b7260148361076c565b9150610b7d82610b3c565b602082019050919050565b60006020820190508181036000830152610ba181610b65565b9050919050565b7f496e73756666696369656e742045544820696e2074686520636f6e7472616374600082015250565b6000610bde60208361076c565b9150610be982610ba8565b602082019050919050565b60006020820190508181036000830152610c0d81610bd1565b9050919050565b6000610c1f82610813565b9150610c2a83610813565b9250828203905081811115610c4257610c41610ab0565b5b92915050565b600081905092915050565b50565b6000610c63600083610c48565b9150610c6e82610c53565b600082019050919050565b6000610c8482610c56565b9150819050919050565b7f455448207472616e73666572206661696c656400000000000000000000000000600082015250565b6000610cc460138361076c565b9150610ccf82610c8e565b602082019050919050565b60006020820190508181036000830152610cf381610cb7565b9050919050565b7f4e487b7100000000000000000000000000000000000000000000000000000000600052601260045260246000fd5b6000610d3482610813565b9150610d3f83610813565b925082610d4f57610d4e610cfa565b5b828204905092915050565b60008160011c9050919050565b6000808291508390505b6001851115610db157808604811115610d8d57610d8c610ab0565b5b6001851615610d9c5780820291505b8081029050610daa85610d5a565b9450610d71565b94509492505050565b600082610dca5760019050610e86565b81610dd85760009050610e86565b8160018114610dee5760028114610df857610e27565b6001915050610e86565b60ff841115610e0a57610e09610ab0565b5b8360020a915084821115610e2157610e20610ab0565b5b50610e86565b5060208310610133831016604e8410600b8410161715610e5c5782820a905083811115610e5757610e56610ab0565b5b610e86565b610e698484846001610d67565b92509050818404811115610e8057610e7f610ab0565b5b81810290505b9392505050565b6000610e9882610813565b9150610ea383610847565b9250610ed07fffffffffffffffffffffffffffffffffffffffffffffffffffffffffffffffff8484610dba565b905092915050565b6000610ee382610813565b9150610eee83610813565b9250828202610efc81610813565b91508282048414831517610f1357610f12610ab0565b5b509291505056fea26469706673582212206d613ee13b58d054b4e6767d8d6ef97c0455ca3e753857bfb9dfb6a29cfb76f364736f6c63430008120033","opcodes":"PUSH1 0x80 PUSH1 0x40 MSTORE CALLVALUE DUP1 ISZERO PUSH3 0x11 JUMPI PUSH1 0x0 DUP1 REVERT JUMPDEST POP PUSH1 0x40 MLOAD PUSH3 0x14E9 CODESIZE SUB DUP1 PUSH3 0x14E9 DUP4 CODECOPY DUP2 DUP2 ADD PUSH1 0x40 MSTORE DUP2 ADD SWAP1 PUSH3 0x37 SWAP2 SWAP1 PUSH3 0x1F6 JUMP JUMPDEST PUSH1 0x40 MLOAD DUP1 PUSH1 0x40 ADD PUSH1 0x40 MSTORE DUP1 PUSH1 0x4 DUP2 MSTORE PUSH1 0x20 ADD PUSH32 0x6E55534400000000000000000000000000000000000000000000000000000000 DUP2 MSTORE POP PUSH1 0x0 SWAP1 DUP2 PUSH3 0x7D SWAP2 SWAP1 PUSH3 0x4A2 JUMP JUMPDEST POP PUSH1 0x40 MLOAD DUP1 PUSH1 0x40 ADD PUSH1 0x40 MSTORE DUP1 PUSH1 0x4 DUP2 MSTORE PUSH1 0x20 ADD PUSH32 0x6E55534400000000000000000000000000000000000000000000000000000000 DUP2 MSTORE POP PUSH1 0x1 SWAP1 DUP2 PUSH3 0xC4 SWAP2 SWAP1 PUSH3 0x4A2 JUMP JUMPDEST POP PUSH1 0x12 PUSH1 0x2 PUSH1 0x0 PUSH2 0x100 EXP DUP2 SLOAD DUP2 PUSH1 0xFF MUL NOT AND SWAP1 DUP4 PUSH1 0xFF AND MUL OR SWAP1 SSTORE POP DUP1 PUSH1 0x2 PUSH1 0x1 PUSH2 0x100 EXP DUP2 SLOAD DUP2 PUSH20 0xFFFFFFFFFFFFFFFFFFFFFFFFFFFFFFFFFFFFFFFF MUL NOT AND SWAP1 DUP4 PUSH20 0xFFFFFFFFFFFFFFFFFFFFFFFFFFFFFFFFFFFFFFFF AND MUL OR SWAP1 SSTORE POP PUSH1 0x2 PUSH1 0x1 SWAP1 SLOAD SWAP1 PUSH2 0x100 EXP SWAP1 DIV PUSH20 0xFFFFFFFFFFFFFFFFFFFFFFFFFFFFFFFFFFFFFFFF AND PUSH1 0x3 PUSH1 0x0 PUSH2 0x100 EXP DUP2 SLOAD DUP2 PUSH20 0xFFFFFFFFFFFFFFFFFFFFFFFFFFFFFFFFFFFFFFFF MUL NOT AND SWAP1 DUP4 PUSH20 0xFFFFFFFFFFFFFFFFFFFFFFFFFFFFFFFFFFFFFFFF AND MUL OR SWAP1 SSTORE POP POP PUSH3 0x589 JUMP JUMPDEST PUSH1 0x0 DUP1 REVERT JUMPDEST PUSH1 0x0 PUSH20 0xFFFFFFFFFFFFFFFFFFFFFFFFFFFFFFFFFFFFFFFF DUP3 AND SWAP1 POP SWAP2 SWAP1 POP JUMP JUMPDEST PUSH1 0x0 PUSH3 0x1BE DUP3 PUSH3 0x191 JUMP JUMPDEST SWAP1 POP SWAP2 SWAP1 POP JUMP JUMPDEST PUSH3 0x1D0 DUP2 PUSH3 0x1B1 JUMP JUMPDEST DUP2 EQ PUSH3 0x1DC JUMPI PUSH1 0x0 DUP1 REVERT JUMPDEST POP JUMP JUMPDEST PUSH1 0x0 DUP2 MLOAD SWAP1 POP PUSH3 0x1F0 DUP2 PUSH3 0x1C5 JUMP JUMPDEST SWAP3 SWAP2 POP POP JUMP JUMPDEST PUSH1 0x0 PUSH1 0x20 DUP3 DUP5 SUB SLT ISZERO PUSH3 0x20F JUMPI PUSH3 0x20E PUSH3 0x18C JUMP JUMPDEST JUMPDEST PUSH1 0x0 PUSH3 0x21F DUP5 DUP3 DUP6 ADD PUSH3 0x1DF JUMP JUMPDEST SWAP2 POP POP SWAP3 SWAP2 POP POP JUMP JUMPDEST PUSH1 0x0 DUP2 MLOAD SWAP1 POP SWAP2 SWAP1 POP JUMP JUMPDEST PUSH32 0x4E487B7100000000000000000000000000000000000000000000000000000000 PUSH1 0x0 MSTORE PUSH1 0x41 PUSH1 0x4 MSTORE PUSH1 0x24 PUSH1 0x0 REVERT JUMPDEST PUSH32 0x4E487B7100000000000000000000000000000000000000000000000000000000 PUSH1 0x0 MSTORE PUSH1 0x22 PUSH1 0x4 MSTORE PUSH1 0x24 PUSH1 0x0 REVERT JUMPDEST PUSH1 0x0 PUSH1 0x2 DUP3 DIV SWAP1 POP PUSH1 0x1 DUP3 AND DUP1 PUSH3 0x2AA JUMPI PUSH1 0x7F DUP3 AND SWAP2 POP JUMPDEST PUSH1 0x20 DUP3 LT DUP2 SUB PUSH3 0x2C0 JUMPI PUSH3 0x2BF PUSH3 0x262 JUMP JUMPDEST JUMPDEST POP SWAP2 SWAP1 POP JUMP JUMPDEST PUSH1 0x0 DUP2 SWAP1 POP DUP2 PUSH1 0x0 MSTORE PUSH1 0x20 PUSH1 0x0 KECCAK256 SWAP1 POP SWAP2 SWAP1 POP JUMP JUMPDEST PUSH1 0x0 PUSH1 0x20 PUSH1 0x1F DUP4 ADD DIV SWAP1 POP SWAP2 SWAP1 POP JUMP JUMPDEST PUSH1 0x0 DUP3 DUP3 SHL SWAP1 POP SWAP3 SWAP2 POP POP JUMP JUMPDEST PUSH1 0x0 PUSH1 0x8 DUP4 MUL PUSH3 0x32A PUSH32 0xFFFFFFFFFFFFFFFFFFFFFFFFFFFFFFFFFFFFFFFFFFFFFFFFFFFFFFFFFFFFFFFF DUP3 PUSH3 0x2EB JUMP JUMPDEST PUSH3 0x336 DUP7 DUP4 PUSH3 0x2EB JUMP JUMPDEST SWAP6 POP DUP1 NOT DUP5 AND SWAP4 POP DUP1 DUP7 AND DUP5 OR SWAP3 POP POP POP SWAP4 SWAP3 POP POP POP JUMP JUMPDEST PUSH1 0x0 DUP2 SWAP1 POP SWAP2 SWAP1 POP JUMP JUMPDEST PUSH1 0x0 DUP2 SWAP1 POP SWAP2 SWAP1 POP JUMP JUMPDEST PUSH1 0x0 PUSH3 0x383 PUSH3 0x37D PUSH3 0x377 DUP5 PUSH3 0x34E JUMP JUMPDEST PUSH3 0x358 JUMP JUMPDEST PUSH3 0x34E JUMP JUMPDEST SWAP1 POP SWAP2 SWAP1 POP JUMP JUMPDEST PUSH1 0x0 DUP2 SWAP1 POP SWAP2 SWAP1 POP JUMP JUMPDEST PUSH3 0x39F DUP4 PUSH3 0x362 JUMP JUMPDEST PUSH3 0x3B7 PUSH3 0x3AE DUP3 PUSH3 0x38A JUMP JUMPDEST DUP5 DUP5 SLOAD PUSH3 0x2F8 JUMP JUMPDEST DUP3 SSTORE POP POP POP POP JUMP JUMPDEST PUSH1 0x0 SWAP1 JUMP JUMPDEST PUSH3 0x3CE PUSH3 0x3BF JUMP JUMPDEST PUSH3 0x3DB DUP2 DUP5 DUP5 PUSH3 0x394 JUMP JUMPDEST POP POP POP JUMP JUMPDEST JUMPDEST DUP2 DUP2 LT ISZERO PUSH3 0x403 JUMPI PUSH3 0x3F7 PUSH1 0x0 DUP3 PUSH3 0x3C4 JUMP JUMPDEST PUSH1 0x1 DUP2 ADD SWAP1 POP PUSH3 0x3E1 JUMP JUMPDEST POP POP JUMP JUMPDEST PUSH1 0x1F DUP3 GT ISZERO PUSH3 0x452 JUMPI PUSH3 0x41C DUP2 PUSH3 0x2C6 JUMP JUMPDEST PUSH3 0x427 DUP5 PUSH3 0x2DB JUMP JUMPDEST DUP2 ADD PUSH1 0x20 DUP6 LT ISZERO PUSH3 0x437 JUMPI DUP2 SWAP1 POP JUMPDEST PUSH3 0x44F PUSH3 0x446 DUP6 PUSH3 0x2DB JUMP JUMPDEST DUP4 ADD DUP3 PUSH3 0x3E0 JUMP JUMPDEST POP POP JUMPDEST POP POP POP JUMP JUMPDEST PUSH1 0x0 DUP3 DUP3 SHR SWAP1 POP SWAP3 SWAP2 POP POP JUMP JUMPDEST PUSH1 0x0 PUSH3 0x477 PUSH1 0x0 NOT DUP5 PUSH1 0x8 MUL PUSH3 0x457 JUMP JUMPDEST NOT DUP1 DUP4 AND SWAP2 POP POP SWAP3 SWAP2 POP POP JUMP JUMPDEST PUSH1 0x0 PUSH3 0x492 DUP4 DUP4 PUSH3 0x464 JUMP JUMPDEST SWAP2 POP DUP3 PUSH1 0x2 MUL DUP3 OR SWAP1 POP SWAP3 SWAP2 POP POP JUMP JUMPDEST PUSH3 0x4AD DUP3 PUSH3 0x228 JUMP JUMPDEST PUSH8 0xFFFFFFFFFFFFFFFF DUP2 GT ISZERO PUSH3 0x4C9 JUMPI PUSH3 0x4C8 PUSH3 0x233 JUMP JUMPDEST JUMPDEST PUSH3 0x4D5 DUP3 SLOAD PUSH3 0x291 JUMP JUMPDEST PUSH3 0x4E2 DUP3 DUP3 DUP6 PUSH3 0x407 JUMP JUMPDEST PUSH1 0x0 PUSH1 0x20 SWAP1 POP PUSH1 0x1F DUP4 GT PUSH1 0x1 DUP2 EQ PUSH3 0x51A JUMPI PUSH1 0x0 DUP5 ISZERO PUSH3 0x505 JUMPI DUP3 DUP8 ADD MLOAD SWAP1 POP JUMPDEST PUSH3 0x511 DUP6 DUP3 PUSH3 0x484 JUMP JUMPDEST DUP7 SSTORE POP PUSH3 0x581 JUMP JUMPDEST PUSH1 0x1F NOT DUP5 AND PUSH3 0x52A DUP7 PUSH3 0x2C6 JUMP JUMPDEST PUSH1 0x0 JUMPDEST DUP3 DUP2 LT ISZERO PUSH3 0x554 JUMPI DUP5 DUP10 ADD MLOAD DUP3 SSTORE PUSH1 0x1 DUP3 ADD SWAP2 POP PUSH1 0x20 DUP6 ADD SWAP5 POP PUSH1 0x20 DUP2 ADD SWAP1 POP PUSH3 0x52D JUMP JUMPDEST DUP7 DUP4 LT ISZERO PUSH3 0x574 JUMPI DUP5 DUP10 ADD MLOAD PUSH3 0x570 PUSH1 0x1F DUP10 AND DUP3 PUSH3 0x464 JUMP JUMPDEST DUP4 SSTORE POP JUMPDEST PUSH1 0x1 PUSH1 0x2 DUP9 MUL ADD DUP9 SSTORE POP POP POP JUMPDEST POP POP POP POP POP POP JUMP JUMPDEST PUSH2 0xF50 DUP1 PUSH3 0x599 PUSH1 0x0 CODECOPY PUSH1 0x0 RETURN INVALID PUSH1 0x80 PUSH1 0x40 MSTORE PUSH1 0x4 CALLDATASIZE LT PUSH2 0x70 JUMPI PUSH1 0x0 CALLDATALOAD PUSH1 0xE0 SHR DUP1 PUSH4 0x95D89B41 GT PUSH2 0x4E JUMPI DUP1 PUSH4 0x95D89B41 EQ PUSH2 0xF6 JUMPI DUP1 PUSH4 0xA607A8D9 EQ PUSH2 0x121 JUMPI DUP1 PUSH4 0xD0E30DB0 EQ PUSH2 0x14C JUMPI DUP1 PUSH4 0xDB006A75 EQ PUSH2 0x156 JUMPI PUSH2 0x70 JUMP JUMPDEST DUP1 PUSH4 0x6FDDE03 EQ PUSH2 0x75 JUMPI DUP1 PUSH4 0x18160DDD EQ PUSH2 0xA0 JUMPI DUP1 PUSH4 0x313CE567 EQ PUSH2 0xCB JUMPI JUMPDEST PUSH1 0x0 DUP1 REVERT JUMPDEST CALLVALUE DUP1 ISZERO PUSH2 0x81 JUMPI PUSH1 0x0 DUP1 REVERT JUMPDEST POP PUSH2 0x8A PUSH2 0x17F JUMP JUMPDEST PUSH1 0x40 MLOAD PUSH2 0x97 SWAP2 SWAP1 PUSH2 0x7F1 JUMP JUMPDEST PUSH1 0x40 MLOAD DUP1 SWAP2 SUB SWAP1 RETURN JUMPDEST CALLVALUE DUP1 ISZERO PUSH2 0xAC JUMPI PUSH1 0x0 DUP1 REVERT JUMPDEST POP PUSH2 0xB5 PUSH2 0x20D JUMP JUMPDEST PUSH1 0x40 MLOAD PUSH2 0xC2 SWAP2 SWAP1 PUSH2 0x82C JUMP JUMPDEST PUSH1 0x40 MLOAD DUP1 SWAP2 SUB SWAP1 RETURN JUMPDEST CALLVALUE DUP1 ISZERO PUSH2 0xD7 JUMPI PUSH1 0x0 DUP1 REVERT JUMPDEST POP PUSH2 0xE0 PUSH2 0x213 JUMP JUMPDEST PUSH1 0x40 MLOAD PUSH2 0xED SWAP2 SWAP1 PUSH2 0x863 JUMP JUMPDEST PUSH1 0x40 MLOAD DUP1 SWAP2 SUB SWAP1 RETURN JUMPDEST CALLVALUE DUP1 ISZERO PUSH2 0x102 JUMPI PUSH1 0x0 DUP1 REVERT JUMPDEST POP PUSH2 0x10B PUSH2 0x226 JUMP JUMPDEST PUSH1 0x40 MLOAD PUSH2 0x118 SWAP2 SWAP1 PUSH2 0x7F1 JUMP JUMPDEST PUSH1 0x40 MLOAD DUP1 SWAP2 SUB SWAP1 RETURN JUMPDEST CALLVALUE DUP1 ISZERO PUSH2 0x12D JUMPI PUSH1 0x0 DUP1 REVERT JUMPDEST POP PUSH2 0x136 PUSH2 0x2B4 JUMP JUMPDEST PUSH1 0x40 MLOAD PUSH2 0x143 SWAP2 SWAP1 PUSH2 0x82C JUMP JUMPDEST PUSH1 0x40 MLOAD DUP1 SWAP2 SUB SWAP1 RETURN JUMPDEST PUSH2 0x154 PUSH2 0x398 JUMP JUMPDEST STOP JUMPDEST CALLVALUE DUP1 ISZERO PUSH2 0x162 JUMPI PUSH1 0x0 DUP1 REVERT JUMPDEST POP PUSH2 0x17D PUSH1 0x4 DUP1 CALLDATASIZE SUB DUP2 ADD SWAP1 PUSH2 0x178 SWAP2 SWAP1 PUSH2 0x8AF JUMP JUMPDEST PUSH2 0x46D JUMP JUMPDEST STOP JUMPDEST PUSH1 0x0 DUP1 SLOAD PUSH2 0x18C SWAP1 PUSH2 0x90B JUMP JUMPDEST DUP1 PUSH1 0x1F ADD PUSH1 0x20 DUP1 SWAP2 DIV MUL PUSH1 0x20 ADD PUSH1 0x40 MLOAD SWAP1 DUP2 ADD PUSH1 0x40 MSTORE DUP1 SWAP3 SWAP2 SWAP1 DUP2 DUP2 MSTORE PUSH1 0x20 ADD DUP3 DUP1 SLOAD PUSH2 0x1B8 SWAP1 PUSH2 0x90B JUMP JUMPDEST DUP1 ISZERO PUSH2 0x205 JUMPI DUP1 PUSH1 0x1F LT PUSH2 0x1DA JUMPI PUSH2 0x100 DUP1 DUP4 SLOAD DIV MUL DUP4 MSTORE SWAP2 PUSH1 0x20 ADD SWAP2 PUSH2 0x205 JUMP JUMPDEST DUP3 ADD SWAP2 SWAP1 PUSH1 0x0 MSTORE PUSH1 0x20 PUSH1 0x0 KECCAK256 SWAP1 JUMPDEST DUP2 SLOAD DUP2 MSTORE SWAP1 PUSH1 0x1 ADD SWAP1 PUSH1 0x20 ADD DUP1 DUP4 GT PUSH2 0x1E8 JUMPI DUP3 SWAP1 SUB PUSH1 0x1F AND DUP3 ADD SWAP2 JUMPDEST POP POP POP POP POP DUP2 JUMP JUMPDEST PUSH1 0x5 SLOAD DUP2 JUMP JUMPDEST PUSH1 0x2 PUSH1 0x0 SWAP1 SLOAD SWAP1 PUSH2 0x100 EXP SWAP1 DIV PUSH1 0xFF AND DUP2 JUMP JUMPDEST PUSH1 0x1 DUP1 SLOAD PUSH2 0x233 SWAP1 PUSH2 0x90B JUMP JUMPDEST DUP1 PUSH1 0x1F ADD PUSH1 0x20 DUP1 SWAP2 DIV MUL PUSH1 0x20 ADD PUSH1 0x40 MLOAD SWAP1 DUP2 ADD PUSH1 0x40 MSTORE DUP1 SWAP3 SWAP2 SWAP1 DUP2 DUP2 MSTORE PUSH1 0x20 ADD DUP3 DUP1 SLOAD PUSH2 0x25F SWAP1 PUSH2 0x90B JUMP JUMPDEST DUP1 ISZERO PUSH2 0x2AC JUMPI DUP1 PUSH1 0x1F LT PUSH2 0x281 JUMPI PUSH2 0x100 DUP1 DUP4 SLOAD DIV MUL DUP4 MSTORE SWAP2 PUSH1 0x20 ADD SWAP2 PUSH2 0x2AC JUMP JUMPDEST DUP3 ADD SWAP2 SWAP1 PUSH1 0x0 MSTORE PUSH1 0x20 PUSH1 0x0 KECCAK256 SWAP1 JUMPDEST DUP2 SLOAD DUP2 MSTORE SWAP1 PUSH1 0x1 ADD SWAP1 PUSH1 0x20 ADD DUP1 DUP4 GT PUSH2 0x28F JUMPI DUP3 SWAP1 SUB PUSH1 0x1F AND DUP3 ADD SWAP2 JUMPDEST POP POP POP POP POP DUP2 JUMP JUMPDEST PUSH1 0x0 DUP1 PUSH1 0x3 PUSH1 0x0 SWAP1 SLOAD SWAP1 PUSH2 0x100 EXP SWAP1 DIV PUSH20 0xFFFFFFFFFFFFFFFFFFFFFFFFFFFFFFFFFFFFFFFF AND PUSH20 0xFFFFFFFFFFFFFFFFFFFFFFFFFFFFFFFFFFFFFFFF AND PUSH4 0xFEAF968C PUSH1 0x40 MLOAD DUP2 PUSH4 0xFFFFFFFF AND PUSH1 0xE0 SHL DUP2 MSTORE PUSH1 0x4 ADD PUSH1 0xA0 PUSH1 0x40 MLOAD DUP1 DUP4 SUB DUP2 DUP7 GAS STATICCALL ISZERO DUP1 ISZERO PUSH2 0x324 JUMPI RETURNDATASIZE PUSH1 0x0 DUP1 RETURNDATACOPY RETURNDATASIZE PUSH1 0x0 REVERT JUMPDEST POP POP POP POP PUSH1 0x40 MLOAD RETURNDATASIZE PUSH1 0x1F NOT PUSH1 0x1F DUP3 ADD AND DUP3 ADD DUP1 PUSH1 0x40 MSTORE POP DUP2 ADD SWAP1 PUSH2 0x348 SWAP2 SWAP1 PUSH2 0x9C9 JUMP JUMPDEST POP POP POP SWAP2 POP POP PUSH1 0x0 DUP2 SGT PUSH2 0x391 JUMPI PUSH1 0x40 MLOAD PUSH32 0x8C379A000000000000000000000000000000000000000000000000000000000 DUP2 MSTORE PUSH1 0x4 ADD PUSH2 0x388 SWAP1 PUSH2 0xA90 JUMP JUMPDEST PUSH1 0x40 MLOAD DUP1 SWAP2 SUB SWAP1 REVERT JUMPDEST DUP1 SWAP2 POP POP SWAP1 JUMP JUMPDEST PUSH1 0x0 CALLVALUE SWAP1 POP PUSH1 0x0 PUSH2 0x3A8 DUP3 PUSH2 0x6AF JUMP JUMPDEST SWAP1 POP DUP1 PUSH1 0x4 PUSH1 0x0 CALLER PUSH20 0xFFFFFFFFFFFFFFFFFFFFFFFFFFFFFFFFFFFFFFFF AND PUSH20 0xFFFFFFFFFFFFFFFFFFFFFFFFFFFFFFFFFFFFFFFF AND DUP2 MSTORE PUSH1 0x20 ADD SWAP1 DUP2 MSTORE PUSH1 0x20 ADD PUSH1 0x0 KECCAK256 PUSH1 0x0 DUP3 DUP3 SLOAD PUSH2 0x3F9 SWAP2 SWAP1 PUSH2 0xADF JUMP JUMPDEST SWAP3 POP POP DUP2 SWAP1 SSTORE POP DUP1 PUSH1 0x5 PUSH1 0x0 DUP3 DUP3 SLOAD PUSH2 0x412 SWAP2 SWAP1 PUSH2 0xADF JUMP JUMPDEST SWAP3 POP POP DUP2 SWAP1 SSTORE POP CALLER PUSH20 0xFFFFFFFFFFFFFFFFFFFFFFFFFFFFFFFFFFFFFFFF AND PUSH32 0x90890809C654F11D6E72A28FA60149770A0D11EC6C92319D6CEB2BB0A4EA1A15 DUP4 DUP4 PUSH1 0x40 MLOAD PUSH2 0x461 SWAP3 SWAP2 SWAP1 PUSH2 0xB13 JUMP JUMPDEST PUSH1 0x40 MLOAD DUP1 SWAP2 SUB SWAP1 LOG2 POP POP JUMP JUMPDEST DUP1 PUSH1 0x4 PUSH1 0x0 CALLER PUSH20 0xFFFFFFFFFFFFFFFFFFFFFFFFFFFFFFFFFFFFFFFF AND PUSH20 0xFFFFFFFFFFFFFFFFFFFFFFFFFFFFFFFFFFFFFFFF AND DUP2 MSTORE PUSH1 0x20 ADD SWAP1 DUP2 MSTORE PUSH1 0x20 ADD PUSH1 0x0 KECCAK256 SLOAD LT ISZERO PUSH2 0x4EF JUMPI PUSH1 0x40 MLOAD PUSH32 0x8C379A000000000000000000000000000000000000000000000000000000000 DUP2 MSTORE PUSH1 0x4 ADD PUSH2 0x4E6 SWAP1 PUSH2 0xB88 JUMP JUMPDEST PUSH1 0x40 MLOAD DUP1 SWAP2 SUB SWAP1 REVERT JUMPDEST PUSH1 0x0 PUSH2 0x4FA DUP3 PUSH2 0x708 JUMP JUMPDEST SWAP1 POP DUP1 SELFBALANCE LT ISZERO PUSH2 0x53F JUMPI PUSH1 0x40 MLOAD PUSH32 0x8C379A000000000000000000000000000000000000000000000000000000000 DUP2 MSTORE PUSH1 0x4 ADD PUSH2 0x536 SWAP1 PUSH2 0xBF4 JUMP JUMPDEST PUSH1 0x40 MLOAD DUP1 SWAP2 SUB SWAP1 REVERT JUMPDEST DUP2 PUSH1 0x4 PUSH1 0x0 CALLER PUSH20 0xFFFFFFFFFFFFFFFFFFFFFFFFFFFFFFFFFFFFFFFF AND PUSH20 0xFFFFFFFFFFFFFFFFFFFFFFFFFFFFFFFFFFFFFFFF AND DUP2 MSTORE PUSH1 0x20 ADD SWAP1 DUP2 MSTORE PUSH1 0x20 ADD PUSH1 0x0 KECCAK256 PUSH1 0x0 DUP3 DUP3 SLOAD PUSH2 0x58E SWAP2 SWAP1 PUSH2 0xC14 JUMP JUMPDEST SWAP3 POP POP DUP2 SWAP1 SSTORE POP DUP2 PUSH1 0x5 PUSH1 0x0 DUP3 DUP3 SLOAD PUSH2 0x5A7 SWAP2 SWAP1 PUSH2 0xC14 JUMP JUMPDEST SWAP3 POP POP DUP2 SWAP1 SSTORE POP PUSH1 0x0 CALLER PUSH20 0xFFFFFFFFFFFFFFFFFFFFFFFFFFFFFFFFFFFFFFFF AND DUP3 PUSH1 0x40 MLOAD PUSH2 0x5D4 SWAP1 PUSH2 0xC79 JUMP JUMPDEST PUSH1 0x0 PUSH1 0x40 MLOAD DUP1 DUP4 SUB DUP2 DUP6 DUP8 GAS CALL SWAP3 POP POP POP RETURNDATASIZE DUP1 PUSH1 0x0 DUP2 EQ PUSH2 0x611 JUMPI PUSH1 0x40 MLOAD SWAP2 POP PUSH1 0x1F NOT PUSH1 0x3F RETURNDATASIZE ADD AND DUP3 ADD PUSH1 0x40 MSTORE RETURNDATASIZE DUP3 MSTORE RETURNDATASIZE PUSH1 0x0 PUSH1 0x20 DUP5 ADD RETURNDATACOPY PUSH2 0x616 JUMP JUMPDEST PUSH1 0x60 SWAP2 POP JUMPDEST POP POP SWAP1 POP DUP1 PUSH2 0x65A JUMPI PUSH1 0x40 MLOAD PUSH32 0x8C379A000000000000000000000000000000000000000000000000000000000 DUP2 MSTORE PUSH1 0x4 ADD PUSH2 0x651 SWAP1 PUSH2 0xCDA JUMP JUMPDEST PUSH1 0x40 MLOAD DUP1 SWAP2 SUB SWAP1 REVERT JUMPDEST CALLER PUSH20 0xFFFFFFFFFFFFFFFFFFFFFFFFFFFFFFFFFFFFFFFF AND PUSH32 0xE5B754FB1ABB7F01B499791D0B820AE3B6AF3424AC1C59768EDB53F4EC31A929 DUP5 DUP5 PUSH1 0x40 MLOAD PUSH2 0x6A2 SWAP3 SWAP2 SWAP1 PUSH2 0xB13 JUMP JUMPDEST PUSH1 0x40 MLOAD DUP1 SWAP2 SUB SWAP1 LOG2 POP POP POP JUMP JUMPDEST PUSH1 0x0 DUP1 PUSH2 0x6BA PUSH2 0x2B4 JUMP JUMPDEST SWAP1 POP PUSH1 0x0 PUSH1 0x2 DUP3 PUSH2 0x6CB SWAP2 SWAP1 PUSH2 0xD29 JUMP JUMPDEST PUSH1 0x2 PUSH1 0x0 SWAP1 SLOAD SWAP1 PUSH2 0x100 EXP SWAP1 DIV PUSH1 0xFF AND PUSH1 0xA PUSH2 0x6E7 SWAP2 SWAP1 PUSH2 0xE8D JUMP JUMPDEST DUP6 PUSH2 0x6F2 SWAP2 SWAP1 PUSH2 0xED8 JUMP JUMPDEST PUSH2 0x6FC SWAP2 SWAP1 PUSH2 0xD29 JUMP JUMPDEST SWAP1 POP DUP1 SWAP3 POP POP POP SWAP2 SWAP1 POP JUMP JUMPDEST PUSH1 0x0 DUP1 PUSH2 0x713 PUSH2 0x2B4 JUMP JUMPDEST SWAP1 POP PUSH1 0x0 PUSH1 0x2 PUSH1 0x0 SWAP1 SLOAD SWAP1 PUSH2 0x100 EXP SWAP1 DIV PUSH1 0xFF AND PUSH1 0xA PUSH2 0x733 SWAP2 SWAP1 PUSH2 0xE8D JUMP JUMPDEST PUSH1 0x2 DUP4 PUSH2 0x740 SWAP2 SWAP1 PUSH2 0xD29 JUMP JUMPDEST DUP6 PUSH2 0x74B SWAP2 SWAP1 PUSH2 0xED8 JUMP JUMPDEST PUSH2 0x755 SWAP2 SWAP1 PUSH2 0xD29 JUMP JUMPDEST SWAP1 POP DUP1 SWAP3 POP POP POP SWAP2 SWAP1 POP JUMP JUMPDEST PUSH1 0x0 DUP2 MLOAD SWAP1 POP SWAP2 SWAP1 POP JUMP JUMPDEST PUSH1 0x0 DUP3 DUP3 MSTORE PUSH1 0x20 DUP3 ADD SWAP1 POP SWAP3 SWAP2 POP POP JUMP JUMPDEST PUSH1 0x0 JUMPDEST DUP4 DUP2 LT ISZERO PUSH2 0x79B JUMPI DUP1 DUP3 ADD MLOAD DUP2 DUP5 ADD MSTORE PUSH1 0x20 DUP2 ADD SWAP1 POP PUSH2 0x780 JUMP JUMPDEST PUSH1 0x0 DUP5 DUP5 ADD MSTORE POP POP POP POP JUMP JUMPDEST PUSH1 0x0 PUSH1 0x1F NOT PUSH1 0x1F DUP4 ADD AND SWAP1 POP SWAP2 SWAP1 POP JUMP JUMPDEST PUSH1 0x0 PUSH2 0x7C3 DUP3 PUSH2 0x761 JUMP JUMPDEST PUSH2 0x7CD DUP2 DUP6 PUSH2 0x76C JUMP JUMPDEST SWAP4 POP PUSH2 0x7DD DUP2 DUP6 PUSH1 0x20 DUP7 ADD PUSH2 0x77D JUMP JUMPDEST PUSH2 0x7E6 DUP2 PUSH2 0x7A7 JUMP JUMPDEST DUP5 ADD SWAP2 POP POP SWAP3 SWAP2 POP POP JUMP JUMPDEST PUSH1 0x0 PUSH1 0x20 DUP3 ADD SWAP1 POP DUP2 DUP2 SUB PUSH1 0x0 DUP4 ADD MSTORE PUSH2 0x80B DUP2 DUP5 PUSH2 0x7B8 JUMP JUMPDEST SWAP1 POP SWAP3 SWAP2 POP POP JUMP JUMPDEST PUSH1 0x0 DUP2 SWAP1 POP SWAP2 SWAP1 POP JUMP JUMPDEST PUSH2 0x826 DUP2 PUSH2 0x813 JUMP JUMPDEST DUP3 MSTORE POP POP JUMP JUMPDEST PUSH1 0x0 PUSH1 0x20 DUP3 ADD SWAP1 POP PUSH2 0x841 PUSH1 0x0 DUP4 ADD DUP5 PUSH2 0x81D JUMP JUMPDEST SWAP3 SWAP2 POP POP JUMP JUMPDEST PUSH1 0x0 PUSH1 0xFF DUP3 AND SWAP1 POP SWAP2 SWAP1 POP JUMP JUMPDEST PUSH2 0x85D DUP2 PUSH2 0x847 JUMP JUMPDEST DUP3 MSTORE POP POP JUMP JUMPDEST PUSH1 0x0 PUSH1 0x20 DUP3 ADD SWAP1 POP PUSH2 0x878 PUSH1 0x0 DUP4 ADD DUP5 PUSH2 0x854 JUMP JUMPDEST SWAP3 SWAP2 POP POP JUMP JUMPDEST PUSH1 0x0 DUP1 REVERT JUMPDEST PUSH2 0x88C DUP2 PUSH2 0x813 JUMP JUMPDEST DUP2 EQ PUSH2 0x897 JUMPI PUSH1 0x0 DUP1 REVERT JUMPDEST POP JUMP JUMPDEST PUSH1 0x0 DUP2 CALLDATALOAD SWAP1 POP PUSH2 0x8A9 DUP2 PUSH2 0x883 JUMP JUMPDEST SWAP3 SWAP2 POP POP JUMP JUMPDEST PUSH1 0x0 PUSH1 0x20 DUP3 DUP5 SUB SLT ISZERO PUSH2 0x8C5 JUMPI PUSH2 0x8C4 PUSH2 0x87E JUMP JUMPDEST JUMPDEST PUSH1 0x0 PUSH2 0x8D3 DUP5 DUP3 DUP6 ADD PUSH2 0x89A JUMP JUMPDEST SWAP2 POP POP SWAP3 SWAP2 POP POP JUMP JUMPDEST PUSH32 0x4E487B7100000000000000000000000000000000000000000000000000000000 PUSH1 0x0 MSTORE PUSH1 0x22 PUSH1 0x4 MSTORE PUSH1 0x24 PUSH1 0x0 REVERT JUMPDEST PUSH1 0x0 PUSH1 0x2 DUP3 DIV SWAP1 POP PUSH1 0x1 DUP3 AND DUP1 PUSH2 0x923 JUMPI PUSH1 0x7F DUP3 AND SWAP2 POP JUMPDEST PUSH1 0x20 DUP3 LT DUP2 SUB PUSH2 0x936 JUMPI PUSH2 0x935 PUSH2 0x8DC JUMP JUMPDEST JUMPDEST POP SWAP2 SWAP1 POP JUMP JUMPDEST PUSH1 0x0 PUSH10 0xFFFFFFFFFFFFFFFFFFFF DUP3 AND SWAP1 POP SWAP2 SWAP1 POP JUMP JUMPDEST PUSH2 0x95B DUP2 PUSH2 0x93C JUMP JUMPDEST DUP2 EQ PUSH2 0x966 JUMPI PUSH1 0x0 DUP1 REVERT JUMPDEST POP JUMP JUMPDEST PUSH1 0x0 DUP2 MLOAD SWAP1 POP PUSH2 0x978 DUP2 PUSH2 0x952 JUMP JUMPDEST SWAP3 SWAP2 POP POP JUMP JUMPDEST PUSH1 0x0 DUP2 SWAP1 POP SWAP2 SWAP1 POP JUMP JUMPDEST PUSH2 0x991 DUP2 PUSH2 0x97E JUMP JUMPDEST DUP2 EQ PUSH2 0x99C JUMPI PUSH1 0x0 DUP1 REVERT JUMPDEST POP JUMP JUMPDEST PUSH1 0x0 DUP2 MLOAD SWAP1 POP PUSH2 0x9AE DUP2 PUSH2 0x988 JUMP JUMPDEST SWAP3 SWAP2 POP POP JUMP JUMPDEST PUSH1 0x0 DUP2 MLOAD SWAP1 POP PUSH2 0x9C3 DUP2 PUSH2 0x883 JUMP JUMPDEST SWAP3 SWAP2 POP POP JUMP JUMPDEST PUSH1 0x0 DUP1 PUSH1 0x0 DUP1 PUSH1 0x0 PUSH1 0xA0 DUP7 DUP9 SUB SLT ISZERO PUSH2 0x9E5 JUMPI PUSH2 0x9E4 PUSH2 0x87E JUMP JUMPDEST JUMPDEST PUSH1 0x0 PUSH2 0x9F3 DUP9 DUP3 DUP10 ADD PUSH2 0x969 JUMP JUMPDEST SWAP6 POP POP PUSH1 0x20 PUSH2 0xA04 DUP9 DUP3 DUP10 ADD PUSH2 0x99F JUMP JUMPDEST SWAP5 POP POP PUSH1 0x40 PUSH2 0xA15 DUP9 DUP3 DUP10 ADD PUSH2 0x9B4 JUMP JUMPDEST SWAP4 POP POP PUSH1 0x60 PUSH2 0xA26 DUP9 DUP3 DUP10 ADD PUSH2 0x9B4 JUMP JUMPDEST SWAP3 POP POP PUSH1 0x80 PUSH2 0xA37 DUP9 DUP3 DUP10 ADD PUSH2 0x969 JUMP JUMPDEST SWAP2 POP POP SWAP3 SWAP6 POP SWAP3 SWAP6 SWAP1 SWAP4 POP JUMP JUMPDEST PUSH32 0x496E76616C696420707269636500000000000000000000000000000000000000 PUSH1 0x0 DUP3 ADD MSTORE POP JUMP JUMPDEST PUSH1 0x0 PUSH2 0xA7A PUSH1 0xD DUP4 PUSH2 0x76C JUMP JUMPDEST SWAP2 POP PUSH2 0xA85 DUP3 PUSH2 0xA44 JUMP JUMPDEST PUSH1 0x20 DUP3 ADD SWAP1 POP SWAP2 SWAP1 POP JUMP JUMPDEST PUSH1 0x0 PUSH1 0x20 DUP3 ADD SWAP1 POP DUP2 DUP2 SUB PUSH1 0x0 DUP4 ADD MSTORE PUSH2 0xAA9 DUP2 PUSH2 0xA6D JUMP JUMPDEST SWAP1 POP SWAP2 SWAP1 POP JUMP JUMPDEST PUSH32 0x4E487B7100000000000000000000000000000000000000000000000000000000 PUSH1 0x0 MSTORE PUSH1 0x11 PUSH1 0x4 MSTORE PUSH1 0x24 PUSH1 0x0 REVERT JUMPDEST PUSH1 0x0 PUSH2 0xAEA DUP3 PUSH2 0x813 JUMP JUMPDEST SWAP2 POP PUSH2 0xAF5 DUP4 PUSH2 0x813 JUMP JUMPDEST SWAP3 POP DUP3 DUP3 ADD SWAP1 POP DUP1 DUP3 GT ISZERO PUSH2 0xB0D JUMPI PUSH2 0xB0C PUSH2 0xAB0 JUMP JUMPDEST JUMPDEST SWAP3 SWAP2 POP POP JUMP JUMPDEST PUSH1 0x0 PUSH1 0x40 DUP3 ADD SWAP1 POP PUSH2 0xB28 PUSH1 0x0 DUP4 ADD DUP6 PUSH2 0x81D JUMP JUMPDEST PUSH2 0xB35 PUSH1 0x20 DUP4 ADD DUP5 PUSH2 0x81D JUMP JUMPDEST SWAP4 SWAP3 POP POP POP JUMP JUMPDEST PUSH32 0x496E73756666696369656E742062616C616E6365000000000000000000000000 PUSH1 0x0 DUP3 ADD MSTORE POP JUMP JUMPDEST PUSH1 0x0 PUSH2 0xB72 PUSH1 0x14 DUP4 PUSH2 0x76C JUMP JUMPDEST SWAP2 POP PUSH2 0xB7D DUP3 PUSH2 0xB3C JUMP JUMPDEST PUSH1 0x20 DUP3 ADD SWAP1 POP SWAP2 SWAP1 POP JUMP JUMPDEST PUSH1 0x0 PUSH1 0x20 DUP3 ADD SWAP1 POP DUP2 DUP2 SUB PUSH1 0x0 DUP4 ADD MSTORE PUSH2 0xBA1 DUP2 PUSH2 0xB65 JUMP JUMPDEST SWAP1 POP SWAP2 SWAP1 POP JUMP JUMPDEST PUSH32 0x496E73756666696369656E742045544820696E2074686520636F6E7472616374 PUSH1 0x0 DUP3 ADD MSTORE POP JUMP JUMPDEST PUSH1 0x0 PUSH2 0xBDE PUSH1 0x20 DUP4 PUSH2 0x76C JUMP JUMPDEST SWAP2 POP PUSH2 0xBE9 DUP3 PUSH2 0xBA8 JUMP JUMPDEST PUSH1 0x20 DUP3 ADD SWAP1 POP SWAP2 SWAP1 POP JUMP JUMPDEST PUSH1 0x0 PUSH1 0x20 DUP3 ADD SWAP1 POP DUP2 DUP2 SUB PUSH1 0x0 DUP4 ADD MSTORE PUSH2 0xC0D DUP2 PUSH2 0xBD1 JUMP JUMPDEST SWAP1 POP SWAP2 SWAP1 POP JUMP JUMPDEST PUSH1 0x0 PUSH2 0xC1F DUP3 PUSH2 0x813 JUMP JUMPDEST SWAP2 POP PUSH2 0xC2A DUP4 PUSH2 0x813 JUMP JUMPDEST SWAP3 POP DUP3 DUP3 SUB SWAP1 POP DUP2 DUP2 GT ISZERO PUSH2 0xC42 JUMPI PUSH2 0xC41 PUSH2 0xAB0 JUMP JUMPDEST JUMPDEST SWAP3 SWAP2 POP POP JUMP JUMPDEST PUSH1 0x0 DUP2 SWAP1 POP SWAP3 SWAP2 POP POP JUMP JUMPDEST POP JUMP JUMPDEST PUSH1 0x0 PUSH2 0xC63 PUSH1 0x0 DUP4 PUSH2 0xC48 JUMP JUMPDEST SWAP2 POP PUSH2 0xC6E DUP3 PUSH2 0xC53 JUMP JUMPDEST PUSH1 0x0 DUP3 ADD SWAP1 POP SWAP2 SWAP1 POP JUMP JUMPDEST PUSH1 0x0 PUSH2 0xC84 DUP3 PUSH2 0xC56 JUMP JUMPDEST SWAP2 POP DUP2 SWAP1 POP SWAP2 SWAP1 POP JUMP JUMPDEST PUSH32 0x455448207472616E73666572206661696C656400000000000000000000000000 PUSH1 0x0 DUP3 ADD MSTORE POP JUMP JUMPDEST PUSH1 0x0 PUSH2 0xCC4 PUSH1 0x13 DUP4 PUSH2 0x76C JUMP JUMPDEST SWAP2 POP PUSH2 0xCCF DUP3 PUSH2 0xC8E JUMP JUMPDEST PUSH1 0x20 DUP3 ADD SWAP1 POP SWAP2 SWAP1 POP JUMP JUMPDEST PUSH1 0x0 PUSH1 0x20 DUP3 ADD SWAP1 POP DUP2 DUP2 SUB PUSH1 0x0 DUP4 ADD MSTORE PUSH2 0xCF3 DUP2 PUSH2 0xCB7 JUMP JUMPDEST SWAP1 POP SWAP2 SWAP1 POP JUMP JUMPDEST PUSH32 0x4E487B7100000000000000000000000000000000000000000000000000000000 PUSH1 0x0 MSTORE PUSH1 0x12 PUSH1 0x4 MSTORE PUSH1 0x24 PUSH1 0x0 REVERT JUMPDEST PUSH1 0x0 PUSH2 0xD34 DUP3 PUSH2 0x813 JUMP JUMPDEST SWAP2 POP PUSH2 0xD3F DUP4 PUSH2 0x813 JUMP JUMPDEST SWAP3 POP DUP3 PUSH2 0xD4F JUMPI PUSH2 0xD4E PUSH2 0xCFA JUMP JUMPDEST JUMPDEST DUP3 DUP3 DIV SWAP1 POP SWAP3 SWAP2 POP POP JUMP JUMPDEST PUSH1 0x0 DUP2 PUSH1 0x1 SHR SWAP1 POP SWAP2 SWAP1 POP JUMP JUMPDEST PUSH1 0x0 DUP1 DUP3 SWAP2 POP DUP4 SWAP1 POP JUMPDEST PUSH1 0x1 DUP6 GT ISZERO PUSH2 0xDB1 JUMPI DUP1 DUP7 DIV DUP2 GT ISZERO PUSH2 0xD8D JUMPI PUSH2 0xD8C PUSH2 0xAB0 JUMP JUMPDEST JUMPDEST PUSH1 0x1 DUP6 AND ISZERO PUSH2 0xD9C JUMPI DUP1 DUP3 MUL SWAP2 POP JUMPDEST DUP1 DUP2 MUL SWAP1 POP PUSH2 0xDAA DUP6 PUSH2 0xD5A JUMP JUMPDEST SWAP5 POP PUSH2 0xD71 JUMP JUMPDEST SWAP5 POP SWAP5 SWAP3 POP POP POP JUMP JUMPDEST PUSH1 0x0 DUP3 PUSH2 0xDCA JUMPI PUSH1 0x1 SWAP1 POP PUSH2 0xE86 JUMP JUMPDEST DUP2 PUSH2 0xDD8 JUMPI PUSH1 0x0 SWAP1 POP PUSH2 0xE86 JUMP JUMPDEST DUP2 PUSH1 0x1 DUP2 EQ PUSH2 0xDEE JUMPI PUSH1 0x2 DUP2 EQ PUSH2 0xDF8 JUMPI PUSH2 0xE27 JUMP JUMPDEST PUSH1 0x1 SWAP2 POP POP PUSH2 0xE86 JUMP JUMPDEST PUSH1 0xFF DUP5 GT ISZERO PUSH2 0xE0A JUMPI PUSH2 0xE09 PUSH2 0xAB0 JUMP JUMPDEST JUMPDEST DUP4 PUSH1 0x2 EXP SWAP2 POP DUP5 DUP3 GT ISZERO PUSH2 0xE21 JUMPI PUSH2 0xE20 PUSH2 0xAB0 JUMP JUMPDEST JUMPDEST POP PUSH2 0xE86 JUMP JUMPDEST POP PUSH1 0x20 DUP4 LT PUSH2 0x133 DUP4 LT AND PUSH1 0x4E DUP5 LT PUSH1 0xB DUP5 LT AND OR ISZERO PUSH2 0xE5C JUMPI DUP3 DUP3 EXP SWAP1 POP DUP4 DUP2 GT ISZERO PUSH2 0xE57 JUMPI PUSH2 0xE56 PUSH2 0xAB0 JUMP JUMPDEST JUMPDEST PUSH2 0xE86 JUMP JUMPDEST PUSH2 0xE69 DUP5 DUP5 DUP5 PUSH1 0x1 PUSH2 0xD67 JUMP JUMPDEST SWAP3 POP SWAP1 POP DUP2 DUP5 DIV DUP2 GT ISZERO PUSH2 0xE80 JUMPI PUSH2 0xE7F PUSH2 0xAB0 JUMP JUMPDEST JUMPDEST DUP2 DUP2 MUL SWAP1 POP JUMPDEST SWAP4 SWAP3 POP POP POP JUMP JUMPDEST PUSH1 0x0 PUSH2 0xE98 DUP3 PUSH2 0x813 JUMP JUMPDEST SWAP2 POP PUSH2 0xEA3 DUP4 PUSH2 0x847 JUMP JUMPDEST SWAP3 POP PUSH2 0xED0 PUSH32 0xFFFFFFFFFFFFFFFFFFFFFFFFFFFFFFFFFFFFFFFFFFFFFFFFFFFFFFFFFFFFFFFF DUP5 DUP5 PUSH2 0xDBA JUMP JUMPDEST SWAP1 POP SWAP3 SWAP2 POP POP JUMP JUMPDEST PUSH1 0x0 PUSH2 0xEE3 DUP3 PUSH2 0x813 JUMP JUMPDEST SWAP2 POP PUSH2 0xEEE DUP4 PUSH2 0x813 JUMP JUMPDEST SWAP3 POP DUP3 DUP3 MUL PUSH2 0xEFC DUP2 PUSH2 0x813 JUMP JUMPDEST SWAP2 POP DUP3 DUP3 DIV DUP5 EQ DUP4 ISZERO OR PUSH2 0xF13 JUMPI PUSH2 0xF12 PUSH2 0xAB0 JUMP JUMPDEST JUMPDEST POP SWAP3 SWAP2 POP POP JUMP INVALID LOG2 PUSH5 0x6970667358 0x22 SLT KECCAK256 PUSH14 0x613EE13B58D054B4E6767D8D6EF9 PUSH29 0x455CA3E753857BFB9DFB6A29CFB76F364736F6C634300081200330000 "},"methodIdentifiers":{"decimals()":"313ce567","deposit()":"d0e30db0","getETHPrice()":"a607a8d9","name()":"06fdde03","redeem(uint256)":"db006a75","symbol()":"95d89b41","totalSupply()":"18160ddd"}}}}}